{
  "_format": "hh-sol-artifact-1",
  "contractName": "OpenAgentRegistry",
  "sourceName": "contracts/OpenAgentRegistry.sol",
  "abi": [
    {
      "inputs": [],
      "stateMutability": "nonpayable",
      "type": "constructor"
    },
    {
      "anonymous": false,
      "inputs": [
        {
          "indexed": true,
          "internalType": "uint256",
          "name": "id",
          "type": "uint256"
        },
        {
          "indexed": true,
          "internalType": "address",
          "name": "buyer",
          "type": "address"
        },
        {
          "indexed": false,
          "internalType": "uint256",
          "name": "price",
          "type": "uint256"
        }
      ],
      "name": "AgentBought",
      "type": "event"
    },
    {
      "anonymous": false,
      "inputs": [
        {
          "indexed": true,
          "internalType": "uint256",
          "name": "id",
          "type": "uint256"
        },
        {
          "indexed": true,
          "internalType": "address",
          "name": "creator",
          "type": "address"
        }
      ],
      "name": "AgentDelisted",
      "type": "event"
    },
    {
      "anonymous": false,
      "inputs": [
        {
          "indexed": true,
          "internalType": "uint256",
          "name": "id",
          "type": "uint256"
        },
        {
          "indexed": true,
          "internalType": "address",
          "name": "creator",
          "type": "address"
        },
        {
          "indexed": false,
          "internalType": "uint256",
          "name": "price",
          "type": "uint256"
        }
      ],
      "name": "AgentListed",
      "type": "event"
    },
    {
      "anonymous": false,
      "inputs": [
        {
          "indexed": true,
          "internalType": "uint256",
          "name": "id",
          "type": "uint256"
        },
        {
          "indexed": false,
          "internalType": "uint256",
          "name": "newPrice",
          "type": "uint256"
        }
      ],
      "name": "AgentPriceUpdated",
      "type": "event"
    },
    {
      "anonymous": false,
      "inputs": [
        {
          "indexed": true,
          "internalType": "uint256",
          "name": "id",
          "type": "uint256"
        },
        {
          "indexed": true,
          "internalType": "address",
          "name": "winner",
          "type": "address"
        },
        {
          "indexed": false,
          "internalType": "uint256",
          "name": "amount",
          "type": "uint256"
        }
      ],
      "name": "AuctionSettled",
      "type": "event"
    },
    {
      "anonymous": false,
      "inputs": [
        {
          "indexed": true,
          "internalType": "uint256",
          "name": "id",
          "type": "uint256"
        },
        {
          "indexed": true,
          "internalType": "address",
          "name": "seller",
          "type": "address"
        },
        {
          "indexed": false,
          "internalType": "uint256",
          "name": "startTime",
          "type": "uint256"
        },
        {
          "indexed": false,
          "internalType": "uint256",
          "name": "endTime",
          "type": "uint256"
        }
      ],
      "name": "AuctionStarted",
      "type": "event"
    },
    {
      "anonymous": false,
      "inputs": [
        {
          "indexed": true,
          "internalType": "uint256",
          "name": "id",
          "type": "uint256"
        },
        {
          "indexed": true,
          "internalType": "address",
          "name": "bidder",
          "type": "address"
        },
        {
          "indexed": false,
          "internalType": "uint256",
          "name": "amount",
          "type": "uint256"
        }
      ],
      "name": "BidPlaced",
      "type": "event"
    },
    {
      "anonymous": false,
      "inputs": [
        {
          "indexed": true,
          "internalType": "uint256",
          "name": "agentId",
          "type": "uint256"
        },
        {
          "indexed": true,
          "internalType": "address",
          "name": "buyer",
          "type": "address"
        },
        {
          "indexed": false,
          "internalType": "address",
          "name": "recipient",
          "type": "address"
        },
        {
          "indexed": false,
          "internalType": "uint256",
          "name": "amount",
          "type": "uint256"
        }
      ],
      "name": "EscrowSettled",
      "type": "event"
    },
    {
      "anonymous": false,
      "inputs": [
        {
          "indexed": true,
          "internalType": "address",
          "name": "user",
          "type": "address"
        },
        {
          "indexed": false,
          "internalType": "string",
          "name": "username",
          "type": "string"
        }
      ],
      "name": "IdentityClaimed",
      "type": "event"
    },
    {
      "inputs": [
        {
          "internalType": "uint256",
          "name": "",
          "type": "uint256"
        }
      ],
      "name": "agents",
      "outputs": [
        {
          "internalType": "uint256",
          "name": "id",
          "type": "uint256"
        },
        {
          "internalType": "address payable",
          "name": "creator",
          "type": "address"
        },
        {
          "internalType": "uint256",
          "name": "price",
          "type": "uint256"
        },
        {
          "internalType": "bool",
          "name": "active",
          "type": "bool"
        }
      ],
      "stateMutability": "view",
      "type": "function"
    },
    {
      "inputs": [
        {
          "internalType": "uint256",
          "name": "",
          "type": "uint256"
        }
      ],
      "name": "auctions",
      "outputs": [
        {
          "internalType": "uint256",
          "name": "id",
          "type": "uint256"
        },
        {
          "internalType": "address payable",
          "name": "seller",
          "type": "address"
        },
        {
          "internalType": "uint256",
          "name": "highestBid",
          "type": "uint256"
        },
        {
          "internalType": "address payable",
          "name": "highestBidder",
          "type": "address"
        },
        {
          "internalType": "uint256",
          "name": "endTime",
          "type": "uint256"
        },
        {
          "internalType": "bool",
          "name": "active",
          "type": "bool"
        },
        {
          "internalType": "bool",
          "name": "settled",
          "type": "bool"
        }
      ],
      "stateMutability": "view",
      "type": "function"
    },
    {
      "inputs": [
        {
          "internalType": "uint256",
          "name": "_id",
          "type": "uint256"
        }
      ],
      "name": "buyAgent",
      "outputs": [],
      "stateMutability": "payable",
      "type": "function"
    },
    {
      "inputs": [
        {
          "internalType": "uint256",
          "name": "_id",
          "type": "uint256"
        },
        {
          "internalType": "address",
          "name": "_user",
          "type": "address"
        }
      ],
      "name": "checkAccess",
      "outputs": [
        {
          "internalType": "bool",
          "name": "",
          "type": "bool"
        }
      ],
      "stateMutability": "view",
      "type": "function"
    },
    {
      "inputs": [
        {
          "internalType": "string",
          "name": "_username",
          "type": "string"
        }
      ],
      "name": "claimIdentity",
      "outputs": [],
      "stateMutability": "nonpayable",
      "type": "function"
    },
    {
      "inputs": [
        {
          "internalType": "uint256",
          "name": "_id",
          "type": "uint256"
        }
      ],
      "name": "delistAgent",
      "outputs": [],
      "stateMutability": "nonpayable",
      "type": "function"
    },
    {
      "inputs": [
        {
          "internalType": "uint256",
          "name": "",
          "type": "uint256"
        },
        {
          "internalType": "address",
          "name": "",
          "type": "address"
        }
      ],
      "name": "escrows",
      "outputs": [
        {
          "internalType": "uint256",
          "name": "amount",
          "type": "uint256"
        },
        {
          "internalType": "address payable",
          "name": "creator",
          "type": "address"
        },
        {
          "internalType": "bool",
          "name": "isSettled",
          "type": "bool"
        }
      ],
      "stateMutability": "view",
      "type": "function"
    },
    {
      "inputs": [
        {
          "internalType": "uint256",
          "name": "",
          "type": "uint256"
        },
        {
          "internalType": "address",
          "name": "",
          "type": "address"
        }
      ],
      "name": "hasAccess",
      "outputs": [
        {
          "internalType": "bool",
          "name": "",
          "type": "bool"
        }
      ],
      "stateMutability": "view",
      "type": "function"
    },
    {
      "inputs": [
        {
          "internalType": "address",
          "name": "",
          "type": "address"
        }
      ],
      "name": "identities",
      "outputs": [
        {
          "internalType": "string",
          "name": "username",
          "type": "string"
        },
        {
          "internalType": "bool",
          "name": "exists",
          "type": "bool"
        }
      ],
      "stateMutability": "view",
      "type": "function"
    },
    {
      "inputs": [
        {
          "internalType": "uint256",
          "name": "_price",
          "type": "uint256"
        }
      ],
      "name": "listAgent",
      "outputs": [
        {
          "internalType": "uint256",
          "name": "",
          "type": "uint256"
        }
      ],
      "stateMutability": "nonpayable",
      "type": "function"
    },
    {
      "inputs": [],
      "name": "nextAgentId",
      "outputs": [
        {
          "internalType": "uint256",
          "name": "",
          "type": "uint256"
        }
      ],
      "stateMutability": "view",
      "type": "function"
    },
    {
      "inputs": [],
      "name": "nextAuctionId",
      "outputs": [
        {
          "internalType": "uint256",
          "name": "",
          "type": "uint256"
        }
      ],
      "stateMutability": "view",
      "type": "function"
    },
    {
      "inputs": [],
      "name": "owner",
      "outputs": [
        {
          "internalType": "address",
          "name": "",
          "type": "address"
        }
      ],
      "stateMutability": "view",
      "type": "function"
    },
    {
      "inputs": [
        {
          "internalType": "uint256",
          "name": "_id",
          "type": "uint256"
        }
      ],
      "name": "placeBid",
      "outputs": [],
      "stateMutability": "payable",
      "type": "function"
    },
    {
      "inputs": [],
      "name": "platformFee",
      "outputs": [
        {
          "internalType": "uint256",
          "name": "",
          "type": "uint256"
        }
      ],
      "stateMutability": "view",
      "type": "function"
    },
    {
      "inputs": [
        {
          "internalType": "uint256",
          "name": "_agentId",
          "type": "uint256"
        },
        {
          "internalType": "address payable",
          "name": "_buyer",
          "type": "address"
        },
        {
          "internalType": "bool",
          "name": "_favorBuyer",
          "type": "bool"
        }
      ],
      "name": "resolveEscrow",
      "outputs": [],
      "stateMutability": "nonpayable",
      "type": "function"
    },
    {
      "inputs": [
        {
          "internalType": "uint256",
          "name": "_id",
          "type": "uint256"
        }
      ],
      "name": "settleAuction",
      "outputs": [],
      "stateMutability": "nonpayable",
      "type": "function"
    },
    {
      "inputs": [
        {
          "internalType": "uint256",
          "name": "_duration",
          "type": "uint256"
        }
      ],
      "name": "startAuction",
      "outputs": [
        {
          "internalType": "uint256",
          "name": "",
          "type": "uint256"
        }
      ],
      "stateMutability": "nonpayable",
      "type": "function"
    },
    {
      "inputs": [
        {
          "internalType": "uint256",
          "name": "_id",
          "type": "uint256"
        },
        {
          "internalType": "uint256",
          "name": "_newPrice",
          "type": "uint256"
        }
      ],
      "name": "updateAgentPrice",
      "outputs": [],
      "stateMutability": "nonpayable",
      "type": "function"
    },
    {
      "inputs": [
        {
          "internalType": "string",
          "name": "",
          "type": "string"
        }
      ],
      "name": "usernameToAddress",
      "outputs": [
        {
          "internalType": "address",
          "name": "",
          "type": "address"
        }
      ],
      "stateMutability": "view",
      "type": "function"
    }
  ],
  "bytecode": "0x608060405260196001556001600755600160085534801561001f57600080fd5b50336000806101000a81548173ffffffffffffffffffffffffffffffffffffffff021916908373ffffffffffffffffffffffffffffffffffffffff1602179055506130018061006f6000396000f3fe60806040526004361061011f5760003560e01c80639979ef45116100a0578063f653b81e11610064578063f653b81e1461041b578063f825f14314610459578063fa3ded9014610496578063fc528482146104b2578063fd0928a2146104dd5761011f565b80639979ef4514610333578063b6f45f111461034f578063ced1419814610378578063d13c8703146103b5578063eed3072e146103f25761011f565b8063571a26a0116100e7578063571a26a014610220578063631f109c146102635780636c1b97b8146102a0578063744c7d98146102c95780638da5cb5b146103085761011f565b8063065de74c1461012457806326232a2e146101615780632e9936111461018c57806330efc498146101b5578063513856c8146101e0575b600080fd5b34801561013057600080fd5b5061014b60048036038101906101469190611db3565b610506565b6040516101589190611def565b60405180910390f35b34801561016d57600080fd5b506101766106fb565b6040516101839190611def565b60405180910390f35b34801561019857600080fd5b506101b360048036038101906101ae9190611db3565b610701565b005b3480156101c157600080fd5b506101ca6109ca565b6040516101d79190611def565b60405180910390f35b3480156101ec57600080fd5b5061020760048036038101906102029190611db3565b6109d0565b6040516102179493929190611e66565b60405180910390f35b34801561022c57600080fd5b5061024760048036038101906102429190611db3565b610a2d565b60405161025a9796959493929190611eab565b60405180910390f35b34801561026f57600080fd5b5061028a60048036038101906102859190611db3565b610ac9565b6040516102979190611def565b60405180910390f35b3480156102ac57600080fd5b506102c760048036038101906102c29190612060565b610c71565b005b3480156102d557600080fd5b506102f060048036038101906102eb91906120e7565b610eec565b6040516102ff93929190612127565b60405180910390f35b34801561031457600080fd5b5061031d610f50565b60405161032a919061216d565b60405180910390f35b61034d60048036038101906103489190611db3565b610f74565b005b34801561035b57600080fd5b5061037660048036038101906103719190611db3565b6111cf565b005b34801561038457600080fd5b5061039f600480360381019061039a91906120e7565b61132e565b6040516103ac9190612188565b60405180910390f35b3480156103c157600080fd5b506103dc60048036038101906103d791906120e7565b61135d565b6040516103e99190612188565b60405180910390f35b3480156103fe57600080fd5b50610419600480360381019061041491906121fb565b6113c5565b005b34801561042757600080fd5b50610442600480360381019061043d919061224e565b611760565b6040516104509291906122fa565b60405180910390f35b34801561046557600080fd5b50610480600480360381019061047b9190612060565b611819565b60405161048d919061216d565b60405180910390f35b6104b060048036038101906104ab9190611db3565b611862565b005b3480156104be57600080fd5b506104c7611c23565b6040516104d49190611def565b60405180910390f35b3480156104e957600080fd5b5061050460048036038101906104ff919061232a565b611c29565b005b6000806008600081548092919061051c90612399565b9190505590506040518060e001604052808281526020013373ffffffffffffffffffffffffffffffffffffffff16815260200160008152602001600073ffffffffffffffffffffffffffffffffffffffff168152602001844261057f91906123e1565b815260200160011515815260200160001515815250600660008381526020019081526020016000206000820151816000015560208201518160010160006101000a81548173ffffffffffffffffffffffffffffffffffffffff021916908373ffffffffffffffffffffffffffffffffffffffff1602179055506040820151816002015560608201518160030160006101000a81548173ffffffffffffffffffffffffffffffffffffffff021916908373ffffffffffffffffffffffffffffffffffffffff1602179055506080820151816004015560a08201518160050160006101000a81548160ff02191690831515021790555060c08201518160050160016101000a81548160ff0219169083151502179055509050503373ffffffffffffffffffffffffffffffffffffffff16817fbf6dc7bdf2f23af5a506fe03ee1221f47d023a2227fbc949c6b812ae44534e6d4286426106dc91906123e1565b6040516106ea929190612415565b60405180910390a380915050919050565b60015481565b6000600660008381526020019081526020016000209050806004015442101561075f576040517f08c379a00000000000000000000000000000000000000000000000000000000081526004016107569061248a565b60405180910390fd5b8060050160019054906101000a900460ff16156107b1576040517f08c379a00000000000000000000000000000000000000000000000000000000081526004016107a8906124f6565b60405180910390fd5b60018160050160016101000a81548160ff02191690831515021790555060008160050160006101000a81548160ff021916908315150217905550600073ffffffffffffffffffffffffffffffffffffffff168160030160009054906101000a900473ffffffffffffffffffffffffffffffffffffffff1673ffffffffffffffffffffffffffffffffffffffff16146109c65760006103e8600154836002015461085a9190612516565b6108649190612587565b9050600081836002015461087891906125b8565b905060008054906101000a900473ffffffffffffffffffffffffffffffffffffffff1673ffffffffffffffffffffffffffffffffffffffff166108fc839081150290604051600060405180830381858888f193505050501580156108e0573d6000803e3d6000fd5b508260010160009054906101000a900473ffffffffffffffffffffffffffffffffffffffff1673ffffffffffffffffffffffffffffffffffffffff166108fc829081150290604051600060405180830381858888f1935050505015801561094b573d6000803e3d6000fd5b508260030160009054906101000a900473ffffffffffffffffffffffffffffffffffffffff1673ffffffffffffffffffffffffffffffffffffffff16847fc9f72b276a388619c6d185d146697036241880c36654b1a3ffdad07c24038d9985600201546040516109bb9190611def565b60405180910390a350505b5050565b60075481565b60046020528060005260406000206000915090508060000154908060010160009054906101000a900473ffffffffffffffffffffffffffffffffffffffff16908060020154908060030160009054906101000a900460ff16905084565b60066020528060005260406000206000915090508060000154908060010160009054906101000a900473ffffffffffffffffffffffffffffffffffffffff16908060020154908060030160009054906101000a900473ffffffffffffffffffffffffffffffffffffffff16908060040154908060050160009054906101000a900460ff16908060050160019054906101000a900460ff16905087565b60008060076000815480929190610adf90612399565b91905055905060405180608001604052808281526020013373ffffffffffffffffffffffffffffffffffffffff16815260200184815260200160011515815250600460008381526020019081526020016000206000820151816000015560208201518160010160006101000a81548173ffffffffffffffffffffffffffffffffffffffff021916908373ffffffffffffffffffffffffffffffffffffffff1602179055506040820151816002015560608201518160030160006101000a81548160ff02191690831515021790555090505060016005600083815260200190815260200160002060003373ffffffffffffffffffffffffffffffffffffffff1673ffffffffffffffffffffffffffffffffffffffff16815260200190815260200160002060006101000a81548160ff0219169083151502179055503373ffffffffffffffffffffffffffffffffffffffff16817f2c179e1e4a2440acecf6f47ee9d109186409daeeab22578623edc7bf37ddbbc185604051610c609190611def565b60405180910390a380915050919050565b600260003373ffffffffffffffffffffffffffffffffffffffff1673ffffffffffffffffffffffffffffffffffffffff16815260200190815260200160002060010160009054906101000a900460ff1615610d01576040517f08c379a0000000000000000000000000000000000000000000000000000000008152600401610cf890612638565b60405180910390fd5b600073ffffffffffffffffffffffffffffffffffffffff16600382604051610d299190612694565b908152602001604051809103902060009054906101000a900473ffffffffffffffffffffffffffffffffffffffff1673ffffffffffffffffffffffffffffffffffffffff1614610dae576040517f08c379a0000000000000000000000000000000000000000000000000000000008152600401610da5906126f7565b60405180910390fd5b604051806040016040528082815260200160011515815250600260003373ffffffffffffffffffffffffffffffffffffffff1673ffffffffffffffffffffffffffffffffffffffff1681526020019081526020016000206000820151816000019081610e1a9190612923565b5060208201518160010160006101000a81548160ff02191690831515021790555090505033600382604051610e4f9190612694565b908152602001604051809103902060006101000a81548173ffffffffffffffffffffffffffffffffffffffff021916908373ffffffffffffffffffffffffffffffffffffffff1602179055503373ffffffffffffffffffffffffffffffffffffffff167f39ef83e6bbafc70c750263f3e2928eea20a831668bd548353e6cb3c63951a5c082604051610ee191906129f5565b60405180910390a250565b6009602052816000526040600020602052806000526040600020600091509150508060000154908060010160009054906101000a900473ffffffffffffffffffffffffffffffffffffffff16908060010160149054906101000a900460ff16905083565b60008054906101000a900473ffffffffffffffffffffffffffffffffffffffff1681565b60006006600083815260200190815260200160002090508060050160009054906101000a900460ff16610fdc576040517f08c379a0000000000000000000000000000000000000000000000000000000008152600401610fd390612a63565b60405180910390fd5b80600401544210611022576040517f08c379a000000000000000000000000000000000000000000000000000000000815260040161101990612acf565b60405180910390fd5b80600201543411611068576040517f08c379a000000000000000000000000000000000000000000000000000000000815260040161105f90612b3b565b60405180910390fd5b600073ffffffffffffffffffffffffffffffffffffffff168160030160009054906101000a900473ffffffffffffffffffffffffffffffffffffffff1673ffffffffffffffffffffffffffffffffffffffff1614611130578060030160009054906101000a900473ffffffffffffffffffffffffffffffffffffffff1673ffffffffffffffffffffffffffffffffffffffff166108fc82600201549081150290604051600060405180830381858888f1935050505015801561112e573d6000803e3d6000fd5b505b348160020181905550338160030160006101000a81548173ffffffffffffffffffffffffffffffffffffffff021916908373ffffffffffffffffffffffffffffffffffffffff1602179055503373ffffffffffffffffffffffffffffffffffffffff16827f0e54eff26401bf69b81b26f60bd85ef47f5d85275c1d268d84f68d6897431c47346040516111c39190611def565b60405180910390a35050565b60006004600083815260200190815260200160002090508060030160009054906101000a900460ff16611237576040517f08c379a000000000000000000000000000000000000000000000000000000000815260040161122e90612ba7565b60405180910390fd5b8060010160009054906101000a900473ffffffffffffffffffffffffffffffffffffffff1673ffffffffffffffffffffffffffffffffffffffff163373ffffffffffffffffffffffffffffffffffffffff16146112c9576040517f08c379a00000000000000000000000000000000000000000000000000000000081526004016112c090612c13565b60405180910390fd5b60008160030160006101000a81548160ff0219169083151502179055503373ffffffffffffffffffffffffffffffffffffffff16827fb0e83d43e83a64dcafdc683932cc419df21db0fb53f8229925356e7e1f4bf59d60405160405180910390a35050565b60056020528160005260406000206020528060005260406000206000915091509054906101000a900460ff1681565b60006005600084815260200190815260200160002060008373ffffffffffffffffffffffffffffffffffffffff1673ffffffffffffffffffffffffffffffffffffffff16815260200190815260200160002060009054906101000a900460ff16905092915050565b60008054906101000a900473ffffffffffffffffffffffffffffffffffffffff1673ffffffffffffffffffffffffffffffffffffffff163373ffffffffffffffffffffffffffffffffffffffff1614611453576040517f08c379a000000000000000000000000000000000000000000000000000000000815260040161144a90612c7f565b60405180910390fd5b60006009600085815260200190815260200160002060008473ffffffffffffffffffffffffffffffffffffffff1673ffffffffffffffffffffffffffffffffffffffff16815260200190815260200160002090508060010160149054906101000a900460ff16156114f9576040517f08c379a00000000000000000000000000000000000000000000000000000000081526004016114f090612d11565b60405180910390fd5b6000816000015411611540576040517f08c379a000000000000000000000000000000000000000000000000000000000815260040161153790612d7d565b60405180910390fd5b60018160010160146101000a81548160ff02191690831515021790555081156116715760006005600086815260200190815260200160002060008573ffffffffffffffffffffffffffffffffffffffff1673ffffffffffffffffffffffffffffffffffffffff16815260200190815260200160002060006101000a81548160ff0219169083151502179055508273ffffffffffffffffffffffffffffffffffffffff166108fc82600001549081150290604051600060405180830381858888f19350505050158015611616573d6000803e3d6000fd5b508273ffffffffffffffffffffffffffffffffffffffff16847f5a2a88b8f83ecb0baeda139b2187dac2d9352131738a72f328629acdcad3cf67858460000154604051611664929190612df2565b60405180910390a361175a565b8060010160009054906101000a900473ffffffffffffffffffffffffffffffffffffffff1673ffffffffffffffffffffffffffffffffffffffff166108fc82600001549081150290604051600060405180830381858888f193505050501580156116df573d6000803e3d6000fd5b508273ffffffffffffffffffffffffffffffffffffffff16847f5a2a88b8f83ecb0baeda139b2187dac2d9352131738a72f328629acdcad3cf678360010160009054906101000a900473ffffffffffffffffffffffffffffffffffffffff168460000154604051611751929190612df2565b60405180910390a35b50505050565b600260205280600052604060002060009150905080600001805461178390612746565b80601f01602080910402602001604051908101604052809291908181526020018280546117af90612746565b80156117fc5780601f106117d1576101008083540402835291602001916117fc565b820191906000526020600020905b8154815290600101906020018083116117df57829003601f168201915b5050505050908060010160009054906101000a900460ff16905082565b6003818051602081018201805184825260208301602085012081835280955050505050506000915054906101000a900473ffffffffffffffffffffffffffffffffffffffff1681565b60006004600083815260200190815260200160002090508060030160009054906101000a900460ff166118ca576040517f08c379a00000000000000000000000000000000000000000000000000000000081526004016118c190612e67565b60405180910390fd5b8060020154341015611911576040517f08c379a000000000000000000000000000000000000000000000000000000000815260040161190890612ed3565b60405180910390fd5b6005600083815260200190815260200160002060003373ffffffffffffffffffffffffffffffffffffffff1673ffffffffffffffffffffffffffffffffffffffff16815260200190815260200160002060009054906101000a900460ff16156119af576040517f08c379a00000000000000000000000000000000000000000000000000000000081526004016119a690612f3f565b60405180910390fd5b60016005600084815260200190815260200160002060003373ffffffffffffffffffffffffffffffffffffffff1673ffffffffffffffffffffffffffffffffffffffff16815260200190815260200160002060006101000a81548160ff02191690831515021790555060006103e860015434611a2b9190612516565b611a359190612587565b905060008134611a4591906125b8565b905060008054906101000a900473ffffffffffffffffffffffffffffffffffffffff1673ffffffffffffffffffffffffffffffffffffffff166108fc839081150290604051600060405180830381858888f19350505050158015611aad573d6000803e3d6000fd5b5060405180606001604052808281526020018460010160009054906101000a900473ffffffffffffffffffffffffffffffffffffffff1673ffffffffffffffffffffffffffffffffffffffff168152602001600015158152506009600086815260200190815260200160002060003373ffffffffffffffffffffffffffffffffffffffff1673ffffffffffffffffffffffffffffffffffffffff1681526020019081526020016000206000820151816000015560208201518160010160006101000a81548173ffffffffffffffffffffffffffffffffffffffff021916908373ffffffffffffffffffffffffffffffffffffffff16021790555060408201518160010160146101000a81548160ff0219169083151502179055509050503373ffffffffffffffffffffffffffffffffffffffff16847f893d001134072847a0c35bf83698711dd5695d62dd92b26fbd9a4f11abc8d0bc8560020154604051611c159190611def565b60405180910390a350505050565b60085481565b60006004600084815260200190815260200160002090508060030160009054906101000a900460ff16611c91576040517f08c379a0000000000000000000000000000000000000000000000000000000008152600401611c8890612ba7565b60405180910390fd5b8060010160009054906101000a900473ffffffffffffffffffffffffffffffffffffffff1673ffffffffffffffffffffffffffffffffffffffff163373ffffffffffffffffffffffffffffffffffffffff1614611d23576040517f08c379a0000000000000000000000000000000000000000000000000000000008152600401611d1a90612fab565b60405180910390fd5b818160020181905550827f48661d948953473c584477d5425c1f1c34e4e672e0b9a7e1d9a3663f7ed2db7d83604051611d5c9190611def565b60405180910390a2505050565b6000604051905090565b600080fd5b600080fd5b6000819050919050565b611d9081611d7d565b8114611d9b57600080fd5b50565b600081359050611dad81611d87565b92915050565b600060208284031215611dc957611dc8611d73565b5b6000611dd784828501611d9e565b91505092915050565b611de981611d7d565b82525050565b6000602082019050611e046000830184611de0565b92915050565b600073ffffffffffffffffffffffffffffffffffffffff82169050919050565b6000611e3582611e0a565b9050919050565b611e4581611e2a565b82525050565b60008115159050919050565b611e6081611e4b565b82525050565b6000608082019050611e7b6000830187611de0565b611e886020830186611e3c565b611e956040830185611de0565b611ea26060830184611e57565b95945050505050565b600060e082019050611ec0600083018a611de0565b611ecd6020830189611e3c565b611eda6040830188611de0565b611ee76060830187611e3c565b611ef46080830186611de0565b611f0160a0830185611e57565b611f0e60c0830184611e57565b98975050505050505050565b600080fd5b600080fd5b6000601f19601f8301169050919050565b7f4e487b7100000000000000000000000000000000000000000000000000000000600052604160045260246000fd5b611f6d82611f24565b810181811067ffffffffffffffff82111715611f8c57611f8b611f35565b5b80604052505050565b6000611f9f611d69565b9050611fab8282611f64565b919050565b600067ffffffffffffffff821115611fcb57611fca611f35565b5b611fd482611f24565b9050602081019050919050565b82818337600083830152505050565b6000612003611ffe84611fb0565b611f95565b90508281526020810184848401111561201f5761201e611f1f565b5b61202a848285611fe1565b509392505050565b600082601f83011261204757612046611f1a565b5b8135612057848260208601611ff0565b91505092915050565b60006020828403121561207657612075611d73565b5b600082013567ffffffffffffffff81111561209457612093611d78565b5b6120a084828501612032565b91505092915050565b60006120b482611e0a565b9050919050565b6120c4816120a9565b81146120cf57600080fd5b50565b6000813590506120e1816120bb565b92915050565b600080604083850312156120fe576120fd611d73565b5b600061210c85828601611d9e565b925050602061211d858286016120d2565b9150509250929050565b600060608201905061213c6000830186611de0565b6121496020830185611e3c565b6121566040830184611e57565b949350505050565b612167816120a9565b82525050565b6000602082019050612182600083018461215e565b92915050565b600060208201905061219d6000830184611e57565b92915050565b6121ac81611e2a565b81146121b757600080fd5b50565b6000813590506121c9816121a3565b92915050565b6121d881611e4b565b81146121e357600080fd5b50565b6000813590506121f5816121cf565b92915050565b60008060006060848603121561221457612213611d73565b5b600061222286828701611d9e565b9350506020612233868287016121ba565b9250506040612244868287016121e6565b9150509250925092565b60006020828403121561226457612263611d73565b5b6000612272848285016120d2565b91505092915050565b600081519050919050565b600082825260208201905092915050565b60005b838110156122b557808201518184015260208101905061229a565b60008484015250505050565b60006122cc8261227b565b6122d68185612286565b93506122e6818560208601612297565b6122ef81611f24565b840191505092915050565b6000604082019050818103600083015261231481856122c1565b90506123236020830184611e57565b9392505050565b6000806040838503121561234157612340611d73565b5b600061234f85828601611d9e565b925050602061236085828601611d9e565b9150509250929050565b7f4e487b7100000000000000000000000000000000000000000000000000000000600052601160045260246000fd5b60006123a482611d7d565b91507fffffffffffffffffffffffffffffffffffffffffffffffffffffffffffffffff82036123d6576123d561236a565b5b600182019050919050565b60006123ec82611d7d565b91506123f783611d7d565b925082820190508082111561240f5761240e61236a565b5b92915050565b600060408201905061242a6000830185611de0565b6124376020830184611de0565b9392505050565b7f41756374696f6e207374696c6c206c6976650000000000000000000000000000600082015250565b6000612474601283612286565b915061247f8261243e565b602082019050919050565b600060208201905081810360008301526124a381612467565b9050919050565b7f416c726561647920736574746c65640000000000000000000000000000000000600082015250565b60006124e0600f83612286565b91506124eb826124aa565b602082019050919050565b6000602082019050818103600083015261250f816124d3565b9050919050565b600061252182611d7d565b915061252c83611d7d565b925082820261253a81611d7d565b915082820484148315176125515761255061236a565b5b5092915050565b7f4e487b7100000000000000000000000000000000000000000000000000000000600052601260045260246000fd5b600061259282611d7d565b915061259d83611d7d565b9250826125ad576125ac612558565b5b828204905092915050565b60006125c382611d7d565b91506125ce83611d7d565b92508282039050818111156125e6576125e561236a565b5b92915050565b7f4964656e7469747920616c726561647920636c61696d65640000000000000000600082015250565b6000612622601883612286565b915061262d826125ec565b602082019050919050565b6000602082019050818103600083015261265181612615565b9050919050565b600081905092915050565b600061266e8261227b565b6126788185612658565b9350612688818560208601612297565b80840191505092915050565b60006126a08284612663565b915081905092915050565b7f557365726e616d6520616c72656164792074616b656e00000000000000000000600082015250565b60006126e1601683612286565b91506126ec826126ab565b602082019050919050565b60006020820190508181036000830152612710816126d4565b9050919050565b7f4e487b7100000000000000000000000000000000000000000000000000000000600052602260045260246000fd5b6000600282049050600182168061275e57607f821691505b60208210810361277157612770612717565b5b50919050565b60008190508160005260206000209050919050565b60006020601f8301049050919050565b600082821b905092915050565b6000600883026127d97fffffffffffffffffffffffffffffffffffffffffffffffffffffffffffffffff8261279c565b6127e3868361279c565b95508019841693508086168417925050509392505050565b6000819050919050565b600061282061281b61281684611d7d565b6127fb565b611d7d565b9050919050565b6000819050919050565b61283a83612805565b61284e61284682612827565b8484546127a9565b825550505050565b600090565b612863612856565b61286e818484612831565b505050565b5b818110156128925761288760008261285b565b600181019050612874565b5050565b601f8211156128d7576128a881612777565b6128b18461278c565b810160208510156128c0578190505b6128d46128cc8561278c565b830182612873565b50505b505050565b600082821c905092915050565b60006128fa600019846008026128dc565b1980831691505092915050565b600061291383836128e9565b9150826002028217905092915050565b61292c8261227b565b67ffffffffffffffff81111561294557612944611f35565b5b61294f8254612746565b61295a828285612896565b600060209050601f83116001811461298d576000841561297b578287015190505b6129858582612907565b8655506129ed565b601f19841661299b86612777565b60005b828110156129c35784890151825560018201915060208501945060208101905061299e565b868310156129e057848901516129dc601f8916826128e9565b8355505b6001600288020188555050505b505050505050565b60006020820190508181036000830152612a0f81846122c1565b905092915050565b7f41756374696f6e206e6f74206163746976650000000000000000000000000000600082015250565b6000612a4d601283612286565b9150612a5882612a17565b602082019050919050565b60006020820190508181036000830152612a7c81612a40565b9050919050565b7f41756374696f6e20656e64656400000000000000000000000000000000000000600082015250565b6000612ab9600d83612286565b9150612ac482612a83565b602082019050919050565b60006020820190508181036000830152612ae881612aac565b9050919050565b7f42696420746f6f206c6f77000000000000000000000000000000000000000000600082015250565b6000612b25600b83612286565b9150612b3082612aef565b602082019050919050565b60006020820190508181036000830152612b5481612b18565b9050919050565b7f4167656e74206e6f742061637469766500000000000000000000000000000000600082015250565b6000612b91601083612286565b9150612b9c82612b5b565b602082019050919050565b60006020820190508181036000830152612bc081612b84565b9050919050565b7f4f6e6c792063726561746f722063616e2064656c697374000000000000000000600082015250565b6000612bfd601783612286565b9150612c0882612bc7565b602082019050919050565b60006020820190508181036000830152612c2c81612bf0565b9050919050565b7f4f6e6c79207265676973747279206f776e657200000000000000000000000000600082015250565b6000612c69601383612286565b9150612c7482612c33565b602082019050919050565b60006020820190508181036000830152612c9881612c5c565b9050919050565b7f457363726f7720616c726561647920736574746c6564206f7220646f6573206e60008201527f6f74206578697374000000000000000000000000000000000000000000000000602082015250565b6000612cfb602883612286565b9150612d0682612c9f565b604082019050919050565b60006020820190508181036000830152612d2a81612cee565b9050919050565b7f4e6f2066756e647320696e20657363726f770000000000000000000000000000600082015250565b6000612d67601283612286565b9150612d7282612d31565b602082019050919050565b60006020820190508181036000830152612d9681612d5a565b9050919050565b6000612db8612db3612dae84611e0a565b6127fb565b611e0a565b9050919050565b6000612dca82612d9d565b9050919050565b6000612ddc82612dbf565b9050919050565b612dec81612dd1565b82525050565b6000604082019050612e076000830185612de3565b612e146020830184611de0565b9392505050565b7f4167656e74206e6f742061637469766520666f722073616c6500000000000000600082015250565b6000612e51601983612286565b9150612e5c82612e1b565b602082019050919050565b60006020820190508181036000830152612e8081612e44565b9050919050565b7f496e73756666696369656e742066756e64730000000000000000000000000000600082015250565b6000612ebd601283612286565b9150612ec882612e87565b602082019050919050565b60006020820190508181036000830152612eec81612eb0565b9050919050565b7f596f7520616c7265616479206f776e2061636365737300000000000000000000600082015250565b6000612f29601683612286565b9150612f3482612ef3565b602082019050919050565b60006020820190508181036000830152612f5881612f1c565b9050919050565b7f4f6e6c792063726561746f722063616e20757064617465207072696365000000600082015250565b6000612f95601d83612286565b9150612fa082612f5f565b602082019050919050565b60006020820190508181036000830152612fc481612f88565b905091905056fea2646970667358221220e39b375385c7630ec5e5d19282536a81c90bfef8b8ff77a290fdc53fc4613eb864736f6c63430008130033",
  "linkReferences": {},
  "deployedLinkReferences": {}
}